:020000040800F2
:10000000002800209D1A00085119000857190008FF
:100010005D19000863190008691900080000000054
:100020000000000000000000000000006F19000840
:100030007B190008000000008719000893190008C8
:10004000E51A0008E51A0008E51A0008E51A000894
:10005000E51A0008E51A0008E51A0008E51A000884
:10006000E51A0008E51A0008E51A0008E51A000874
:10007000E51A0008E51A0008E51A0008E51A000864
:10008000E51A0008E51A0008E51A0008E51A000854
:10009000E51A0008E51A0008E51A0008E51A000844
:1000A000E51A0008E51A0008E51A0008E51A000834
:1000B000A1190008E51A000800000000E51A000870
:1000C000E51A00080000000000000000E51A000822
:1000D00000000000E51A0008E51A00080000000012
:1000E000E51A0008E51A0008E51A000800000000FB
:1000F0000000000000000000000000000000000000
:0C01000000000000000000005FF808F1A3
:10010C0010B5054C237833B9044B13B10448AFF345
:10011C0000800123237010BD40000020000000006F
:10012C00FC30000808B5034B1BB103490348AFF37F
:10013C00008008BD0000000044000020FC300008D6
:10014C0081F0004102E000BF83F0004330B54FEA7C
:10015C0041044FEA430594EA050F08BF90EA020FE9
:10016C001FBF54EA000C55EA020C7FEA645C7FEA7C
:10017C00655C00F0E2804FEA5454D4EB5555B8BF9F
:10018C006D420CDD2C4480EA020281EA030382EA10
:10019C00000083EA010180EA020281EA0303362DA2
:1001AC0088BF30BD11F0004F4FEA01314FF4801C75
:1001BC004CEA113102D0404261EB410113F0004F87
:1001CC004FEA03334CEA133302D0524263EB43033E
:1001DC0094EA050F00F0A780A4F10104D5F1200EDC
:1001EC000DDB02FA0EFC22FA05F2801841F1000137
:1001FC0003FA0EF2801843FA05F359410EE0A5F10B
:10020C0020050EF1200E012A03FA0EFC28BF4CF03B
:10021C00020C43FA05F3C01851EBE37101F00045F1
:10022C0007D54FF0000EDCF1000C7EEB00006EEBFE
:10023C000101B1F5801F1BD3B1F5001F0CD3490888
:10024C005FEA30004FEA3C0C04F101044FEA4452DF
:10025C0012F5800F80F09A80BCF1004F08BF5FEA66
:10026C00500C50F1000041EB045141EA050130BD46
:10027C005FEA4C0C404141EB0101013C28BFB1F558
:10028C00801FE9D291F0000F04BF01460020B1FAA3
:10029C0081F308BF2033A3F10B03B3F120020CDA76
:1002AC000C3208DD02F1140CC2F10C0201FA0CF054
:1002BC0021FA02F10CE002F11402D8BFC2F1200CB9
:1002CC0001FA02F120FA0CFCDCBF41EA0C0190406F
:1002DC00E41AA2BF01EB0451294330BD6FEA0404B8
:1002EC001F3C1CDA0C340EDC04F11404C4F12002A3
:1002FC0020FA04F001FA02F340EA030021FA04F3B5
:10030C0045EA030130BDC4F10C04C4F1200220FA0B
:10031C0002F001FA04F340EA0300294630BD21FA49
:10032C0004F0294630BD94F0000F83F4801306BF0F
:10033C0081F480110134013D4EE77FEA645C18BF03
:10034C007FEA655C29D094EA050F08BF90EA020F9A
:10035C0005D054EA000C04BF1946104630BD91EA92
:10036C00030F1EBF0021002030BD5FEA545C05D195
:10037C004000494128BF41F0004130BD14F58004D4
:10038C003CBF01F5801130BD01F0004545F0FE4148
:10039C0041F470014FF0000030BD7FEA645C1ABF7D
:1003AC00194610467FEA655C1CBF0B46024650EAB4
:1003BC00013406BF52EA033591EA030F41F40021E0
:1003CC0030BD00BF90F0000F04BF0021704730B566
:1003DC004FF4806404F132044FF000054FF000013B
:1003EC0050E700BF90F0000F04BF0021704730B5FC
:1003FC004FF4806404F1320410F0004548BF4042D1
:10040C004FF000013EE700BF42004FEAE2014FEA25
:10041C0031014FEA02701FBF12F07F4393F07F4F00
:10042C0081F06051704732F07F4208BF704793F003
:10043C007F4F04BF41F40021704730B54FF4607416
:10044C0001F0004521F000411CE700BF50EA010219
:10045C0008BF704730B54FF000050AE050EA0102C2
:10046C0008BF704730B511F0004502D5404261EB32
:10047C0041014FF4806404F132045FEA915C3FF473
:10048C00D8AE4FF003025FEADC0C18BF03325FEA10
:10049C00DC0C18BF033202EBDC02C2F1200300FAC1
:1004AC0003FC20FA02F001FA03FE40EA0E0021FAE6
:1004BC0002F11444BDE600BF70B54FF0FF0C4CF4D4
:1004CC00E06C1CEA11541DBF1CEA135594EA0C0F86
:1004DC0095EA0C0F00F0DEF82C4481EA030621EAC1
:1004EC004C5123EA4C5350EA013518BF52EA0335FC
:1004FC0041F4801143F4801338D0A0FB02CE4FF0AE
:10050C000005E1FB02E506F00042E0FB03E54FF0DD
:10051C000006E1FB03569CF0000F18BF4EF0010ED5
:10052C00A4F1FF04B6F5007F64F5407404D25FEAD1
:10053C004E0E6D4146EB060642EAC62141EA555184
:10054C004FEAC52040EA5E504FEACE2EB4F1FD0CC6
:10055C0088BFBCF5E06F1ED8BEF1004F08BF5FEA44
:10056C00500E50F1000041EB045170BD06F00046F6
:10057C0046EA010140EA020081EA0301B4EB5C04A3
:10058C00C2BFD4EB0C0541EA045170BD41F480119B
:10059C004FF0000E013C00F3AB8014F1360FDEBFC0
:1005AC00002001F0004170BDC4F10004203C35DA9C
:1005BC000C341BDC04F11404C4F1200500FA05F31F
:1005CC0020FA04F001FA05F240EA020001F00042C0
:1005DC0021F0004110EBD37021FA04F642EB060136
:1005EC005EEA430E08BF20EAD37070BDC4F10C0460
:1005FC00C4F1200500FA04F320FA05F001FA04F224
:10060C0040EA020001F0004110EBD37041F100010F
:10061C005EEA430E08BF20EAD37070BDC4F120051A
:10062C0000FA05F24EEA020E20FA04F301FA05F282
:10063C0043EA020321FA04F001F0004121FA04F22A
:10064C0020EA020000EBD3705EEA430E08BF20EAFA
:10065C00D37070BD94F0000F0FD101F00046400034
:10066C0041EB010111F4801F08BF013CF7D041EAB6
:10067C00060195F0000F18BF704703F000465200BA
:10068C0043EB030313F4801F08BF013DF7D043EA8B
:10069C000603704794EA0C0F0CEA135518BF95EA41
:1006AC000C0F0CD050EA410618BF52EA4306D1D1C8
:1006BC0081EA030101F000414FF0000070BD50EAE7
:1006CC00410606BF1046194652EA430619D094EA71
:1006DC000C0F02D150EA013613D195EA0C0F05D15B
:1006EC0052EA03361CBF104619460AD181EA0301AF
:1006FC0001F0004141F0FE4141F470014FF0000067
:10070C0070BD41F0FE4141F4780170BD70B54FF001
:10071C00FF0C4CF4E06C1CEA11541DBF1CEA135581
:10072C0094EA0C0F95EA0C0F00F0A7F8A4EB050463
:10073C0081EA030E52EA03354FEA013100F088805A
:10074C004FEA03334FF0805545EA131343EA126323
:10075C004FEA022245EA111545EA10654FEA0026D8
:10076C000EF000419D4208BF964244F1FD0404F591
:10077C00407402D25B084FEA3202B61A65EB0305ED
:10078C005B084FEA32024FF480104FF4002CB6EBAA
:10079C00020E75EB030E22BFB61A754640EA0C002A
:1007AC005B084FEA3202B6EB020E75EB030E22BF6A
:1007BC00B61A754640EA5C005B084FEA3202B6EBAB
:1007CC00020E75EB030E22BFB61A754640EA9C006A
:1007DC005B084FEA3202B6EB020E75EB030E22BF3A
:1007EC00B61A754640EADC0055EA060E18D04FEAF8
:1007FC00051545EA16754FEA06164FEAC30343EA98
:10080C0052734FEAC2025FEA1C1CC0D111F4801F64
:10081C000BD141EA00014FF000004FF0004CB6E75D
:10082C0011F4801F04BF01430020B4F1FD0C88BFFC
:10083C00BCF5E06F3FF6AFAEB5EB030C04BFB6EB07
:10084C00020C5FEA500C50F1000041EB045170BDFA
:10085C000EF0004E4EEA113114EB5C04C2BFD4EB27
:10086C000C0541EA045170BD41F480114FF0000EAB
:10087C00013C90E645EA060E8DE60CEA135594EA27
:10088C000C0F08BF95EA0C0F3FF43BAF94EA0C0F2A
:10089C000AD150EA01347FF434AF95EA0C0F7FF49F
:1008AC0025AF104619462CE795EA0C0F06D152EAF3
:1008BC0003353FF4FDAE1046194622E750EA4106D7
:1008CC0018BF52EA43067FF4C5AE50EA41047FF4E8
:1008DC000DAF52EA43057FF4EBAE12E74FEA41024B
:1008EC0012F5001215D211D56FF47873B3EB625276
:1008FC0012D94FEAC12343F0004343EA505311F09D
:10090C00004F23FA02F018BF404270474FF000002E
:10091C00704750EA013005D111F0004008BF6FF06C
:10092C00004070474FF00000704700BF80B500AF2B
:10093C00404B1B68404A12681146184600F054FFA1
:10094C003C4B1B68002B34DC3C4B1B78022B14D02B
:10095C00022B30DC002B02D0012B1CD02BE0374BB0
:10096C0002221A70364B1B68324A13600123002294
:10097C000021002000F0E6FE1EE0304B01221A7030
:10098C00304B1B682B4A13600023012200210020EE
:10099C0000F0D8FE10E0294B00221A702A4B1B687D
:1009AC00244A1360002300220121002000F0CAFE1B
:1009BC0002E000BF00E000BF1F4B1B68002B34DCC3
:1009CC001E4B5B78022B14D0022B30DC002B02D098
:1009DC00012B1CD02BE0194B02225A70184B1B68B0
:1009EC00154A1360012300220021012000F0AAFE09
:1009FC001EE0124B01225A70124B1B680E4A1360F8
:100A0C00002301220021012000F09CFE10E00B4B82
:100A1C0000225A700C4B1B68074A136000230022FB
:100A2C000121012000F08EFE02E000BF00E000BFBB
:100A3C0000BF80BD24000020280000202C000020D6
:100A4C00200000201C0000201800002080B500AF02
:100A5C001A4B1B68032B20D0032B2BDC012B02D051
:100A6C00022B0DD026E0002300220121002000F0F3
:100A7C0069FE002300220121012000F063FE1AE030
:100A8C00002301220021002000F05CFE0023012243
:100A9C000021012000F056FE0DE001230022002170
:100AAC00002000F04FFE012300220021012000F065
:100ABC0049FE00E000BF00BF80BD00BF5C0000200D
:100ACC0080B500AF002000F0D3FF0346002B15D0FB
:100ADC00674B1B68002B08D1664B1A68664B1B686A
:100AEC001A44664B1B689A4202D100F01DFE01E0CD
:100AFC0000F09EFD7D21002000F05CFF5C4B1B682C
:100B0C00042B00F2B38001A252F823F02D0B000845
:100B1C008B0B0008B90B0008E70B0008150C00083C
:100B2C00544B1A68544B1B681A44544B1B689A421A
:100B3C000BD0534B1B68514A1360514B5B684E4AA8
:100B4C0013604F4B9B684B4A1360012000F090FFE1
:100B5C000346002B0ED04B4B1B68013B494A1360DC
:100B6C00494B1B68013B484A13604FF47A710120D2
:100B7C0000F020FFFFF7DAFE00F090F876E0434B30
:100B8C001B78022B03D13D4B1B68414A1360404B31
:100B9C001B680221184600F027FEFFF757FF00F0F4
:100BAC007DF800F0FFF800F0A5F85FE0374B1B78FC
:100BBC00022B03D1304B1B68364A1360354B1B6834
:100BCC000321184600F010FEFFF740FF00F066F816
:100BDC0000F0E8F800F08EF848E02C4B1B78022B64
:100BEC0003D1244B1B682C4A13602B4B1B6804212C
:100BFC00184600F0F9FDFFF729FF00F04FF800F060
:100C0C00D1F800F077F831E01A4B1B68002B10D0AC
:100C1C001A4B1B68002B0CD0174B1B68002B08D0F1
:100C2C00144B1A68144B1B681A44144B1B689A42D9
:100C3C000CD1134B1B68114A1360114B5B680E4AA5
:100C4C0013600F4B9B680B4A13600BE00B4B1B683C
:100C5C000B4A1360084B1B68094A5360054B1B6811
:100C6C00074A9360024B00221A60FFE700BF80BD69
:100C7C005C000020200000201C0000201800002038
:100C8C000000002024000020280000202E0000205E
:100C9C000C000020100000201400002080B500AFD4
:100CAC00124B1B68002B02D0012B0FD01BE0002035
:100CBC0000F018FA0346002B12D00D4B1B680133C1
:100CCC000B4A1360094B01221A6009E0002000F066
:100CDC0009FA0346002B05D1044B00221A6001E0EF
:100CEC0000BF00E000BF00BF80BD00BF600000205F
:100CFC005C00002080B500AF214B9B68002B02D01C
:100D0C00012B2ED03AE0022000F0ECF90346002B28
:100D1C0031D01C4B1B68032B16D0032B1CDC012B76
:100D2C0002D0022B08D017E0174B1B68174A136030
:100D3C00174B02221A7010E0164B1B68164A1360F0
:100D4C00134B02221A7008E0144B1B68144A1360F0
:100D5C000F4B02221A7000E000BF094B01229A606F
:100D6C0009E0022000F0BEF90346002B05D1044B2C
:100D7C0000229A6001E000BF00E000BF00BF80BD10
:100D8C00600000205C0000200C00002018000020F7
:100D9C002E000020100000201C0000201400002059
:100DAC002000002080B500AF474B5B68022B4BD076
:100DBC00022B00F38780002B02D0012B30D081E076
:100DCC00012000F08FF90346002B29D03F4B1B6804
:100DDC00032B18D0032B1FDC012B02D0022B09D0C4
:100DEC001AE03B4B1B680133394A1360394B002224
:100DFC001A7012E0384B1B680133374A1360354BBD
:100E0C0000221A7009E0354B1B680133334A13601A
:100E1C00304B00221A7000E000BF2B4B01225A60AD
:100E2C00012000F05FF90346002B03D1264B002272
:100E3C005A6046E0012000F06BF90346002B40D0CD
:100E4C00214B02225A603CE0012000F04BF9034692
:100E5C00002B03D11C4B00225A6033E0042000F01D
:100E6C0007FE0346002B2DD0184B1B68032B18D004
:100E7C00032B1FDC012B02D0022B09D01AE0144BE0
:100E8C001B680133124A1360124B01221A7012E0D4
:100E9C00114B1B680133104A13600E4B01221A7060
:100EAC0009E00E4B1B6801330C4A1360094B0122FD
:100EBC001A7000E000BF4FF47A71042000F07AFD44
:100ECC0000E000BF00BF80BD600000205C0000207F
:100EDC000C0000202E000020100000201400002028
:100EEC0080B483B000AF00237B6035E0284A7B6878
:100EFC005B011344083301221A60254A7B685B01AD
:100F0C00134408331A6822497B685B010B44043391
:100F1C001A601F4A7B685B01134404331A681C492E
:100F2C007B685B010B441A60194A7B685B011344B4
:100F3C000C3300221A60164A7B685B011344103391
:100F4C0000221A60124A7B685B011344143364223A
:100F5C001A607B6801337B607B68022BC6DD0C4B0F
:100F6C000C4A9A610A4B08229A83094B094A9A63E4
:100F7C00074B10229A87064B064A9A65044B20228F
:100F8C00A3F85C2000BF0C37BD4680BC704700BF87
:100F9C00700000200008014080B582B000AF002333
:100FAC007B6093E04E4A7B685B01134404331A6800
:100FBC004B497B685B010B441A60494A7B685B01B7
:100FCC00134408331A6846497B685B010B440433AD
:100FDC001A60434A7B685B01134418331A68404912
:100FEC007B685B010B441C331B881946104601F0CF
:100FFC005FF8034619463A4A7B685B011344083391
:10100C001960374A7B685B0113441A6834497B6862
:10101C005B010B4404331B689A4254D1304A7B6801
:10102C005B01134404331A682D497B685B010B4444
:10103C0008331B689A4246D1294A7B685B011344EA
:10104C0008331B68002B24D1254A7B685B011344B1
:10105C000C3301221A60224A7B685B01134414335F
:10106C001B68002B0DDD1E4A7B685B011344143397
:10107C001B685A1E1A497B685B010B4414331A60B7
:10108C0021E0174A7B685B011344103301221A607C
:10109C0019E0134A7B685B0113440C3300221A607D
:1010AC000F4A7B685B0113440C331A680C497B684C
:1010BC005B010B4410331A60094A7B685B011344D3
:1010CC00143364221A607B6801337B607B68022BCB
:1010DC007FF768AF00BF00BF0837BD4680BD00BFBB
:1010EC007000002080B483B000AF78607B68022B66
:1010FC0001DD002305E0054A7B685B0113440C33DA
:10110C001B6818460C37BD4680BC70477000002029
:10111C0080B483B000AF78607B68022B01DD0023C4
:10112C0005E0054A7B685B01134410331B681846C5
:10113C000C37BD4680BC70477000002080B500AFF6
:10114C0000F0CCFC00F032F800F0B8F800F06AF8CF
:10115C00154801F009FC7D21002000F02BFC4FF418
:10116C007A71012000F026FC0A21022000F022FCFA
:10117C00FA21032000F01EFC4FF47A71042000F0D9
:10118C0019FC00F081FBFFF7ABFE022000F070FCB5
:10119C000346002B05D0FFF7FFFE0A21022000F0CA
:1011AC0009FCFFF78DFCF0E7D000002080B590B073
:1011BC0000AF07F1180328220021184601F090FF18
:1011CC003B1D00221A605A609A60DA601A61022391
:1011DC00BB610123BB621023FB6200237B6307F11D
:1011EC001803184600F094FF0346002B01D000F0C2
:1011FC00CFF80F237B600023BB600023FB60002330
:10120C003B6100237B613B1D0021184601F000FA75
:10121C000346002B01D000F0BBF800BF4037BD46A1
:10122C0080BD000080B586B000AF07F10803002236
:10123C001A605A609A60DA603B4600221A605A6063
:10124C001D4B4FF080421A601B4B41F63F725A60A7
:10125C00194B00229A60184B0922DA60164B0022B7
:10126C001A61154B00229A61134801F02DFB0346BD
:10127C00002B01D000F08CF84FF48053BB6007F1C9
:10128C00080319460C4801F0C3FC0346002B01D09F
:10129C0000F07EF800233B6000237B603B46194640
:1012AC00054801F08FFE0346002B01D000F070F8CA
:1012BC0000BF1837BD4680BDD000002080B586B079
:1012CC0000AF07F1080300221A605A609A60DA60D6
:1012DC00274B9B69264A43F004039361244B9B697B
:1012EC0003F004037B607B68214B9B69204A43F02D
:1012FC00080393611E4B9B6903F008033B603B683A
:10130C0000224FF6C0711B4800F0E9FE00227F213D
:10131C00194800F0E4FE3823BB600023FB60002377
:10132C003B6107F108031946124800F047FD4FF6E0
:10133C00C073BB600123FB6000233B6102237B6114
:10134C0007F1080319460B4800F038FD7F23BB60FA
:10135C000123FB6000233B6102237B6107F108033F
:10136C001946054800F02AFD00BF1837BD4680BD60
:10137C000010024000080140000C014080B582B012
:10138C0000AF786000F042FB00BF0837BD4680BD5F
:10139C0080B400AF72B600BFFEE7000090B583B01A
:1013AC0000AF0446084611461A462346FB71034615
:1013BC00BB710B467B7113463B711E4B1B681D4A60
:1013CC009188FA79184600F08AFE1A4B1B68194A64
:1013DC00D188BA79184600F082FE164B1B68154A64
:1013EC0011897A79184600F07AFE124B1B68114A63
:1013FC0051893A79184600F072FE0E4B1B680D4A63
:10140C0091893A7E184600F06AFE0A4B1B68094A1D
:10141C00D1893A7F184600F062FE064B1B68054ADC
:10142C00118A97F82020184600F059FE00BF0C379F
:10143C00BD4690BD1801002080B586B004AF786021
:10144C007B68092B00F29A8001A252F823F000BFAE
:10145C00851400089F140008B9140008D314000860
:10146C00ED14000807150008211500083B150008AD
:10147C00551500086F1500080123029300230193F2
:10148C00002300930023002200210020FFF786FF99
:10149C0081E0012302930123019301230093012393
:1014AC00002200210120FFF779FF74E00023029352
:1014BC00012301930023009300230122002100202B
:1014CC00FFF76CFF67E000230293012301930123D4
:1014DC0000930023002200210020FFF75FFF5AE059
:1014EC000023029300230193012300930123002284
:1014FC0000210120FFF752FF4DE00023029300234F
:10150C000193012300930023002201210020FFF707
:10151C0045FF40E000230293002301930023009336
:10152C000023002201210020FFF738FF33E00123C4
:10153C000293012301930123009301230022002134
:10154C000020FFF72BFF26E00023029300230193DA
:10155C00002300930023002200210020FFF71EFF30
:10156C0019E000230293002301930123009300232D
:10157C00002200210020FFF711FF0CE00123029351
:10158C000123019301230093012301220121012056
:10159C00FFF704FF00BF00BF0837BD4680BD00BF8A
:1015AC0080B400AF0D4B0E4A1A600C4B01229A808E
:1015BC000A4B0222DA80094B04221A81074B0822BB
:1015CC005A81064B10229A81044B2022DA81034B5C
:1015DC0040221A8200BFBD4680BC70471801002013
:1015EC00000C014080B400AF0F4B104A1A600E4B38
:1015FC0040229A800C4B8022DA800B4B4FF4807285
:10160C001A81094B094ADA60074B4FF400721A82AF
:10161C00054B4FF480625A82034B4FF400629A825E
:10162C0000BFBD4680BC70472C0000200008014064
:10163C0080B500AF01224FF480510B4800F04FFDF4
:10164C0001224FF40051084800F049FD01224FF4EB
:10165C008041054800F043FD01224FF4004102484F
:10166C0000F03DFD00BF80BD0008014080B582B098
:10167C0000AF78607B68032B02DC7B68002B01DAFF
:10168C0000237B607B68032B42D801A252F823F025
:10169C00AD160008C9160008E51600080117000869
:1016AC00FFF7C6FF00224FF480511D4800F017FDD4
:1016BC001C4B1B781846FFF7BFFE2CE0FFF7B8FF5A
:1016CC0000224FF40051164800F009FD154B5B78D1
:1016DC001846FFF7B1FE1EE0FFF7AAFF00224FF4F9
:1016EC0080410F4800F0FBFC0E4B9B781846FFF72F
:1016FC00A3FE10E0FFF79CFF00224FF400410848C6
:10170C0000F0EDFC074BDB781846FFF795FE02E086
:10171C00FFF78EFF00BF00BF0837BD4680BD00BF7E
:10172C00000801403000002080B500AF044B1B685E
:10173C005A1C03490A601846FFF798FF00BF80BD8A
:10174C006C00002080B582B000AF7860084611466E
:10175C001A460346FB700B46BB7013467B7021493F
:10176C007A6813465B0013449B000B4418681D49B0
:10177C007A6813465B0013449B000B4404331B88AC
:10178C00FA78194600F0ABFC16497A6813465B00F0
:10179C0013449B000B44186812497A6813465B008B
:1017AC0013449B000B4406331B88BA78194600F08F
:1017BC0096FC0C497A6813465B0013449B000B445F
:1017CC00186808497A6813465B0013449B000B4465
:1017DC0008331B887A78194600F081FC00BF083763
:1017EC00BD4680BD2C00002080B483B000AF786073
:1017FC0039607B68632B02DC7B68002B01DA0023E9
:10180C007B603B68632B02DC3B68002B01DA002316
:10181C003B607B681A4A82FB03129210DB17D31AC7
:10182C00DAB2184B1A707A68154B83FB02139910B5
:10183C00D317C91A0B469B000B445B00D11ACAB2D2
:10184C00104B5A703B680E4A82FB03129210DB1746
:10185C00D31ADAB20B4B9A703A68094B83FB02131A
:10186C009910D317C91A0B469B000B445B00D11A75
:10187C00CAB2044BDA7000BF0C37BD4680BC70474F
:10188C00676666663000002080B500AFFFF788FE03
:10189C00FFF7A8FE00BF80BD80B485B000AF154B2C
:1018AC009B69144A43F001039361124B9B6903F04B
:1018BC000103BB60BB680F4BDB690E4A43F08053DE
:1018CC00D3610C4BDB6903F080537B607B680A4B64
:1018DC005B68FB60FB6823F0E063FB60FB6843F034
:1018EC008063FB60044AFB68536000BF1437BD463D
:1018FC0080BC7047001002400000014080B584B0ED
:10190C0000AF78607B681B68B3F1804F13D10C4B30
:10191C00DB690B4A43F00103D361094BDB6903F02C
:10192C000103FB60FB68002200211C2000F00FFA71
:10193C001C2000F028FA00BF1037BD4680BD00BF48
:10194C000010024080B400AFFEE780B400AFFEE7A9
:10195C0080B400AFFEE780B400AFFEE780B400AF08
:10196C00FEE780B400AF00BFBD4680BC704780B4BA
:10197C0000AF00BFBD4680BC704780B400AF00BF55
:10198C00BD4680BC704780B500AF00F0EDF800BFDD
:10199C0080BD000080B500AF024801F031F800BFF7
:1019AC0080BD00BFD000002080B400AF00BFBD469A
:1019BC0080BC704780B582B000AF786039603B68FE
:1019CC004FF47A7202FB03F31846FEF70BFD4FF04F
:1019DC0000020C4BFEF79AFE02460B4610461946C7
:1019EC00FEF77CFF024608497B68DB000B445A601B
:1019FC00054A7B68002142F8331000BF0837BD460A
:101A0C0080BD00BF00408F402C01002080B483B00B
:101A1C0000AF00237B601FE0144A7B6852F8333020
:101A2C00002B16D1114A7B68DB0013445B685A1EED
:101A3C000E497B68DB000B445A600C4A7B68DB0068
:101A4C0013445B68002B04DC084A7B68012142F8D4
:101A5C0033107B6801337B607B68042BDCDD00BFBB
:101A6C0000BF0C37BD4680BC704700BF2C01002066
:101A7C0080B483B000AF7860044A7B6852F833308E
:101A8C0018460C37BD4680BC704700BF2C010020A7
:101A9C00FFF78AFF0B480C490C4A002302E0D4588C
:101AAC00C4500433C4188C42F9D3094A094C00239E
:101ABC0001E013600432A242FBD301F0EDFAFFF710
:101ACC003DFB704700000020400000204031000822
:101ADC004000002058010020FEE7000080B500AF58
:101AEC00084B1B68074A43F010031360032000F0F7
:101AFC0023F90F2000F008F8FFF7CEFE002318465C
:101B0C0080BD00BF0020024080B582B000AF78607D
:101B1C00124B1A68124B1B7819464FF47A73B3FBAD
:101B2C00F1F3B2FBF3F3184600F03BF90346002B3C
:101B3C0001D001230EE07B680F2B0AD800227968B4
:101B4C004FF0FF3000F003F9064A7B681360002366
:101B5C0000E0012318460837BD4680BD3400002044
:101B6C003C0000203800002080B400AF054B1B78EF
:101B7C001A46054B1B681344034A136000BFBD464D
:101B8C0080BC70473C0000205401002080B400AFA2
:101B9C00024B1B681846BD4680BC704754010020A0
:101BAC0080B485B000AF78607B6803F00703FB60FE
:101BBC000C4BDB68BB60BA684FF6FF031340BB608D
:101BCC00FB681A02BB68134343F0BF6343F4003352
:101BDC00BB60044ABB68D36000BF1437BD4680BCF1
:101BEC00704700BF00ED00E080B400AF044BDB6831
:101BFC001B0A03F007031846BD4680BC704700BFA4
:101C0C0000ED00E080B483B000AF0346FB7197F9A0
:101C1C000730002B0BDBFB7903F01F02064997F909
:101C2C0007305B09012000FA02F241F8232000BFC3
:101C3C000C37BD4680BC704700E100E080B483B037
:101C4C0000AF03463960FB7197F90730002B0ADBB4
:101C5C003B68DAB20C4997F907301201D2B20B4447
:101C6C0083F800230AE03B68DAB20849FB7903F0F9
:101C7C000F03043B1201D2B20B441A7600BF0C378F
:101C8C00BD4680BC704700BF00E100E000ED00E005
:101C9C0080B489B000AFF860B9607A60FB6803F07B
:101CAC000703FB61FB69C3F10703042B28BF042363
:101CBC00BB61FB690433062B02D9FB69033B00E0D3
:101CCC0000237B614FF0FF32BB6902FA03F3DA4366
:101CDC00BB681A407B699A404FF0FF317B6901FA6F
:101CEC0003F3D9437B680B40134318462437BD4696
:101CFC0080BC704780B582B000AF78607B68013BD8
:101D0C00B3F1807F01D301230FE00A4A7B68013BCA
:101D1C0053600F214FF0FF30FFF790FF054B00226F
:101D2C009A60044B07221A60002318460837BD46F8
:101D3C0080BD00BF10E000E080B582B000AF7860DD
:101D4C007868FFF72DFF00BF0837BD4680BD80B512
:101D5C0086B000AF0346B9607A60FB7300237B61E9
:101D6C00FFF742FF78617A68B9687869FFF790FFEE
:101D7C00024697F90F3011461846FFF75FFF00BF78
:101D8C001837BD4680BD80B582B000AF0346FB71ED
:101D9C0097F907301846FFF735FF00BF0837BD46E7
:101DAC0080BD80B582B000AF78607868FFF7A2FF85
:101DBC00034618460837BD4680BD000080B48BB082
:101DCC0000AF7860396000237B6200233B6248E1FE
:101DDC0001227B6A02FA03F3FB613B681B68FA6918
:101DEC001340BB61BA69FB699A4240F037813B688A
:101DFC005B68A34A93425ED0A14A934275D8A14A2C
:101E0C00934258D09F4A93426FD89F4A934252D0E4
:101E1C009D4A934269D89D4A93424CD09B4A934227
:101E2C0063D89B4A934246D0994A93425DD8122B71
:101E3C002AD8122B59D801A252F823F0C31E00083D
:101E4C009D1E0008AF1E0008F11E0008F71E0008BA
:101E5C00F71E0008F71E0008F71E0008F71E000802
:101E6C00F71E0008F71E0008F71E0008F71E0008F2
:101E7C00F71E0008F71E0008F71E0008F71E0008E2
:101E8C00A51E0008B91E0008824A934213D02CE00C
:101E9C003B68DB683B6229E03B68DB6804333B62F0
:101EAC0024E03B68DB6808333B621FE03B68DB687F
:101EBC000C333B621AE03B689B68002B02D1042375
:101ECC003B6213E03B689B68012B05D108233B6206
:101EDC007B68FA691A6109E008233B627B68FA693E
:101EEC005A6103E000233B6200E000BFBB69FF2B9B
:101EFC0001D87B6801E07B6804337B61BB69FF2BF5
:101F0C0002D87B6A9B0002E07B6A083B9B003B612A
:101F1C007B691A680F213B6901FA03F3DB431A4012
:101F2C00396A3B6901FA03F31A437B691A603B680F
:101F3C005B6803F08053002B00F09080564B9B693C
:101F4C00554A43F001039361534B9B6903F0010322
:101F5C00BB60BB68514A7B6A9B08023352F8233042
:101F6C00FB607B6A03F003039B000F2202FA03F36E
:101F7C00DB43FA681340FB607B68494A93420DD0FF
:101F8C007B68484A934207D07B68474A934201D109
:101F9C00022304E0032302E0012300E000237A6A19
:101FAC0002F0030292009340FA681343FB603B4932
:101FBC007B6A9B080233FA6841F823203B685B6814
:101FCC0003F48013002B06D0384B9A683749BB6951
:101FDC0013438B6006E0354B9A68BB69DB4333498E
:101FEC0013408B603B685B6803F40013002B06D036
:101FFC002E4BDA682D49BB691343CB6006E02B4BA3
:10200C00DA68BB69DB4329491340CB603B685B68EA
:10201C0003F40033002B06D0244B5A682349BB69C8
:10202C0013434B6006E0214B5A68BB69DB431F49E5
:10203C0013404B603B685B6803F48033002B06D085
:10204C001A4B1A681949BB6913430B6006E0174B0E
:10205C001A68BB69DB43154913400B607B6A01337B
:10206C007B623B681A687B6A22FA03F3002B7FF4CD
:10207C00AFAE00BF00BF2C37BD4680BC704700BF61
:10208C00000032100000311000002210000021105E
:10209C00000012100000111000100240000001405E
:1020AC0000080140000C01400010014000040140F8
:1020BC0080B485B000AF78600B467B807B689A68F3
:1020CC007B881340002B02D00123FB7301E000231B
:1020DC00FB73FB7B18461437BD4680BC704780B43D
:1020EC0083B000AF78600B467B8013467B707B78A7
:1020FC00002B03D07A887B681A6103E07B881A0472
:10210C007B681A6100BF0C37BD4680BC704700006D
:10211C0080B586B000AF78607B68002B01D10123BD
:10212C006CE27B681B6803F00103002B00F08780D6
:10213C00924B5B6803F00C03042B0CD08F4B5B6849
:10214C0003F00C03082B12D18C4B5B6803F4803327
:10215C00B3F5803F0BD1894B1B6803F40033002B84
:10216C006CD07B685B68002B68D1012346E27B68EE
:10217C005B68B3F5803F06D1804B1B687F4A43F404
:10218C00803313602EE07B685B68002B0CD17B4B9B
:10219C001B687A4A23F480331360784B1B68774AA8
:1021AC0023F4802313601DE07B685B68B3F5A02FDC
:1021BC000CD1724B1B68714A43F4802313606F4B34
:1021CC001B686E4A43F4803313600BE06B4B1B6847
:1021DC006A4A23F480331360684B1B68674A23F404
:1021EC00802313607B685B68002B13D0FFF7CEFC59
:1021FC00386108E0FFF7CAFC02463B69D31A642B2E
:10220C0001D90323FAE15D4B1B6803F40033002B67
:10221C00F0D014E0FFF7BAFC386108E0FFF7B6FC29
:10222C0002463B69D31A642B01D90323E6E1534BD5
:10223C001B6803F40033002BF0D100E000BF7B6877
:10224C001B6803F00203002B63D04C4B5B6803F05C
:10225C000C03002B0BD0494B5B6803F00C03082BD1
:10226C001CD1464B5B6803F48033002B16D1434BD7
:10227C001B6803F00203002B05D07B681B69012B44
:10228C0001D00123BAE13D4B1B6823F0F8027B68B7
:10229C005B69DB00394913430B603AE07B681B69CF
:1022AC00002B20D0364B01221A60FFF76FFC3861EF
:1022BC0008E0FFF76BFC02463B69D31A022B01D9ED
:1022CC0003239BE12D4B1B6803F00203002BF0D082
:1022DC002A4B1B6823F0F8027B685B69DB002749FB
:1022EC0013430B6015E0264B00221A60FFF74EFCDF
:1022FC00386108E0FFF74AFC02463B69D31A022B0F
:10230C0001D903237AE11D4B1B6803F00203002B58
:10231C00F0D17B681B6803F00803002B3AD07B6874
:10232C009B69002B19D0174B01221A60FFF72EFC6A
:10233C00386108E0FFF72AFC02463B69D31A022BEE
:10234C0001D903235AE10D4B5B6A03F00203002B06
:10235C00F0D0012000F09AFA1CE00A4B00221A601F
:10236C00FFF714FC38610FE0FFF710FC02463B69E5
:10237C00D31A022B08D9032340E100BF00100240FE
:10238C0000004242800442429E4B5B6A03F002030F
:10239C00002BE9D17B681B6803F00403002B00F0D1
:1023AC00A6800023FB75974BDB6903F08053002B51
:1023BC000DD1944BDB69934A43F08053D361914B1D
:1023CC00DB6903F08053BB60BB680123FB758E4B4C
:1023DC001B6803F48073002B18D18B4B1B688A4A43
:1023EC0043F480731360FFF7D1FB386108E0FFF70B
:1023FC00CDFB02463B69D31A642B01D90323FDE0C4
:10240C00814B1B6803F48073002BF0D07B68DB6876
:10241C00012B06D17B4B1B6A7A4A43F001031362F2
:10242C002DE07B68DB68002B0CD1764B1B6A754A60
:10243C0023F001031362734B1B6A724A23F00403EB
:10244C0013621CE07B68DB68052B0CD16D4B1B6A9F
:10245C006C4A43F0040313626A4B1B6A694A43F0EB
:10246C00010313620BE0674B1B6A664A23F00103FE
:10247C001362644B1B6A634A23F0040313627B6888
:10248C00DB68002B15D0FFF781FB38610AE0FFF702
:10249C007DFB02463B69D31A41F28832934201D943
:1024AC000323ABE0574B1B6A03F00203002BEED067
:1024BC0014E0FFF76BFB38610AE0FFF767FB02469D
:1024CC003B69D31A41F28832934201D9032395E038
:1024DC004C4B1B6A03F00203002BEED1FB7D012B4E
:1024EC0005D1484BDB69474A23F08053D3617B68A5
:1024FC00DB69002B00F08180424B5B6803F00C031E
:10250C00082B61D07B68DB69022B46D13F4B002244
:10251C001A60FFF73BFB386108E0FFF737FB024618
:10252C003B69D31A022B01D9032367E0354B1B6897
:10253C0003F00073002BF0D17B681B6AB3F5803F6E
:10254C0008D1304B5B6823F400327B689B682D49C3
:10255C0013434B602B4B5B6823F474127B68196A32
:10256C007B685B6A0B43274913434B60274B012263
:10257C001A60FFF70BFB386108E0FFF707FB024618
:10258C003B69D31A022B01D9032337E01D4B1B687F
:10259C0003F00073002BF0D02FE01C4B00221A60CC
:1025AC00FFF7F4FA386108E0FFF7F0FA02463B69EE
:1025BC00D31A022B01D9032320E0124B1B6803F022
:1025CC000073002BF0D118E07B68DB69012B01D183
:1025DC00012313E00B4B5B68FB60FB6803F4803258
:1025EC007B681B6A9A4206D1FB6803F470127B6805
:1025FC005B6A9A4201D0012300E000231846183789
:10260C00BD4680BD00100240007000406000424298
:10261C0080B584B000AF786039607B68002B01D145
:10262C000123D0E06A4B1B6803F007033A689A4217
:10263C0010D9674B1B6823F0070265493B681343AD
:10264C000B60634B1B6803F007033A689A4201D096
:10265C000123B8E07B681B6803F00203002B20D039
:10266C007B681B6803F00403002B05D0594B5B6897
:10267C00584A43F4E06353607B681B6803F008031B
:10268C00002B05D0534B5B68524A43F460535360A4
:10269C00504B5B6823F0F0027B689B684D491343F9
:1026AC004B607B681B6803F00103002B40D07B68F8
:1026BC005B68012B07D1474B1B6803F40033002BDD
:1026CC0015D101237FE07B685B68022B07D1414B5E
:1026DC001B6803F00073002B09D1012373E03D4B01
:1026EC001B6803F00203002B01D101236BE0394B73
:1026FC005B6823F003027B685B68364913434B60CD
:10270C00FFF744FAF8600AE0FFF740FA0246FB686C
:10271C00D31A41F28832934201D9032353E02D4B53
:10272C005B6803F00C027B685B689B009A42EBD100
:10273C00274B1B6803F007033A689A4210D2244BCC
:10274C001B6823F0070222493B6813430B60204BA4
:10275C001B6803F007033A689A4201D0012332E068
:10276C007B681B6803F00403002B08D0194B5B68D3
:10277C0023F4E0627B68DB68164913434B607B688B
:10278C001B6803F00803002B09D0124B5B6823F481
:10279C0060527B681B69DB000E4913434B6000F0F1
:1027AC0021F802460B4B5B681B0903F00F030A4927
:1027BC00CB5C22FA03F3094A1360094B1B681846D9
:1027CC00FFF7A2F9002318461037BD4680BD00BFA5
:1027DC000020024000100240143100083400002098
:1027EC003800002080B487B000AF0023FB600023CA
:1027FC00BB6000237B6100237B6000233B611E4B8D
:10280C005B68FB60FB6803F00C03042B02D0082B05
:10281C0003D027E0194B3B6127E0FB689B0C03F0CE
:10282C000F03174AD35C7B60FB6803F48033002BE7
:10283C0010D0114B5B685B0C03F00103114AD35CA5
:10284C00BB607B680D4A02FB03F2BB68B2FBF3F37F
:10285C007B6104E07B680C4A02FB03F37B617B69C0
:10286C003B6102E0054B3B6100BF3B6918461C37DE
:10287C00BD4680BC704700BF0010024000127A00B9
:10288C00243100083431000800093D0080B485B0C3
:10289C0000AF78600A4B1B680A4AA2FB03235B0A51
:1028AC007A6802FB03F3FB6000BFFB685A1EFA60F8
:1028BC00002BF9D100BF00BF1437BD4680BC704758
:1028CC0034000020D34D621080B582B000AF786028
:1028DC007B68002B01D1012341E07B6893F83D30EC
:1028EC00DBB2002B06D17B68002283F83C20786891
:1028FC00FFF704F87B68022283F83D207B681A6896
:10290C007B6804331946104600F06EFA7B6801228E
:10291C0083F846207B68012283F83E207B680122E5
:10292C0083F83F207B68012283F840207B680122DA
:10293C0083F841207B68012283F842207B680122C6
:10294C0083F843207B68012283F844207B680122B2
:10295C0083F845207B68012283F83D20002318462C
:10296C000837BD4680BD000080B485B000AF7860EC
:10297C007B6893F83D30DBB2012B01D0012335E0AD
:10298C007B68022283F83D207B681B68DA687B68D1
:10299C001B6842F00102DA607B681B68164A93429E
:1029AC0009D07B681B68B3F1804F04D07B681B682F
:1029BC00124A934211D17B681B689B6803F0070392
:1029CC00FB60FB68062B10D07B681B681A687B6861
:1029DC001B6842F001021A6007E07B681B681A68EA
:1029EC007B681B6842F001021A60002318461437FA
:1029FC00BD4680BC704700BF002C01400004004065
:102A0C0080B582B000AF78607B681B681B6903F0EF
:102A1C000203022B22D17B681B68DB6803F00203E4
:102A2C00022B1BD17B681B686FF002021A617B685A
:102A3C0001221A777B681B689B6903F00303002B48
:102A4C0003D0786800F0B4F905E0786800F0A7F9D5
:102A5C00786800F0B6F97B6800221A777B681B68EF
:102A6C001B6903F00403042B22D17B681B68DB6811
:102A7C0003F00403042B1BD17B681B686FF004026A
:102A8C001A617B6802221A777B681B689B6903F4C6
:102A9C004073002B03D0786800F08AF905E0786861
:102AAC0000F07DF9786800F08CF97B6800221A77C9
:102ABC007B681B681B6903F00803082B22D17B6819
:102ACC001B68DB6803F00803082B1BD17B681B68B1
:102ADC006FF008021A617B6804221A777B681B6806
:102AEC00DB6903F00303002B03D0786800F060F976
:102AFC0005E0786800F053F9786800F062F97B68BB
:102B0C0000221A777B681B681B6903F01003102BDB
:102B1C0022D17B681B68DB6803F01003102B1BD1E0
:102B2C007B681B686FF010021A617B6808221A77A9
:102B3C007B681B68DB6903F44073002B03D0786857
:102B4C0000F036F905E0786800F029F9786800F0B3
:102B5C0038F97B6800221A777B681B681B6903F0C5
:102B6C000103012B0ED17B681B68DB6803F00103AA
:102B7C00012B07D17B681B686FF001021A61786822
:102B8C00FEF7FCFB7B681B681B6903F08003802B42
:102B9C000ED17B681B68DB6803F08003802B07D1A8
:102BAC007B681B686FF080021A61786800F06BFA22
:102BBC007B681B681B6903F04003402B0ED17B68BC
:102BCC001B68DB6803F04003402B07D17B681B6854
:102BDC006FF040021A61786800F0FCF87B681B68A3
:102BEC001B6903F02003202B0ED17B681B68DB686C
:102BFC0003F02003202B07D17B681B686FF02002A9
:102C0C001A61786800F036FA00BF0837BD4680BDFF
:102C1C0080B584B000AF786039600023FB737B68AB
:102C2C0093F83C30012B01D10223B4E07B680122E4
:102C3C0083F83C207B68022283F83D207B681B686C
:102C4C009B68BB60BB6823F07703BB60BB6823F455
:102C5C007F43BB607B681B68BA689A603B681B68E3
:102C6C00B3F5005F3ED0B3F5005F00F28780B3F59B
:102C7C00805F00F08680B3F5805F7FD8702B1AD010
:102C8C00702B7BD8602B50D0602B77D8502B3CD03E
:102C9C00502B73D8402B58D0402B6FD8302B64D08E
:102CAC00302B6BD8202B60D0202B67D8002B5CD01E
:102CBC00102B5AD062E07B6818683B6899683B68B7
:102CCC005A683B68DB6800F05EF97B681B689B68A0
:102CDC00BB60BB6843F07703BB607B681B68BA685A
:102CEC009A604FE07B6818683B6899683B685A6843
:102CFC003B68DB6800F047F97B681B689A687B6867
:102D0C001B6842F480429A603CE07B6818683B6820
:102D1C0059683B68DB681A4600F0BEF87B681B6894
:102D2C005021184600F015F92CE07B6818683B68B8
:102D3C0059683B68DB681A4600F0DCF87B681B6856
:102D4C006021184600F005F91CE07B6818683B68A8
:102D5C0059683B68DB681A4600F09EF87B681B6874
:102D6C004021184600F0F5F80CE07B681A683B68C7
:102D7C001B681946104600F0ECF803E00123FB73C6
:102D8C0000E000BF7B68012283F83D207B680022B5
:102D9C0083F83C20FB7B18461037BD4680BD80B4C1
:102DAC0083B000AF786000BF0C37BD4680BC704765
:102DBC0080B483B000AF786000BF0C37BD4680BCD8
:102DCC00704780B483B000AF786000BF0C37BD464D
:102DDC0080BC704780B483B000AF786000BF0C3704
:102DEC00BD4680BC7047000080B485B000AF7860F1
:102DFC0039607B681B68FB607B68254A934207D06F
:102E0C007B68B3F1804F03D07B68224A934208D190
:102E1C00FB6823F07003FB603B685B68FA68134344
:102E2C00FB607B681A4A934207D07B68B3F1804FF2
:102E3C0003D07B68174A934208D1FB6823F4407394
:102E4C00FB603B68DB68FA681343FB60FB6823F0AC
:102E5C0080023B685B691343FB607B68FA681A600D
:102E6C003B689A687B68DA623B681A687B689A628E
:102E7C007B68074A934203D13B681A697B681A63E3
:102E8C007B6801225A6100BF1437BD4680BC704775
:102E9C00002C01400004004080B487B000AFF86003
:102EAC00B9607A60FB681B6A7B61FB681B6A23F064
:102EBC000102FB681A62FB689B693B613B6923F06A
:102ECC00F0033B617B681B013A6913433B617B69EF
:102EDC0023F00A037B617A69BB6813437B61FB684F
:102EEC003A699A61FB687A691A6200BF1C37BD4661
:102EFC0080BC704780B487B000AFF860B9607A606E
:102F0C00FB681B6A7B61FB681B6A23F01002FB6881
:102F1C001A62FB689B693B613B6923F470433B611C
:102F2C007B681B033A6913433B617B6923F0A00365
:102F3C007B61BB681B017A6913437B61FB683A694F
:102F4C009A61FB687A691A6200BF1C37BD4680BC67
:102F5C00704780B485B000AF786039607B689B683F
:102F6C00FB60FB6823F07003FB603A68FB6813435B
:102F7C0043F00703FB607B68FA689A6000BF143764
:102F8C00BD4680BC704780B487B000AFF860B960B4
:102F9C007A603B60FB689B687B617B6923F47F43B1
:102FAC007B613B681A027B681A43BB6813437A69DE
:102FBC0013437B61FB687A699A6000BF1C37BD467E
:102FCC0080BC704780B485B000AF786039607B6896
:102FDC0093F83C30012B01D1022341E07B680122A4
:102FEC0083F83C207B68022283F83D207B681B68B9
:102FFC005B68FB607B681B689B68BB60FB6823F0AD
:10300C007003FB603B681B68FA681343FB607B68CA
:10301C001B68FA685A607B681B68144A934209D093
:10302C007B681B68B3F1804F04D07B681B68104A27
:10303C0093420CD1BB6823F08003BB603B685B6898
:10304C00BA681343BB607B681B68BA689A607B687C
:10305C00012283F83D207B68002283F83C2000236A
:10306C0018461437BD4680BC704700BF002C014089
:10307C000004004080B483B000AF786000BF0C3710
:10308C00BD4680BC704780B483B000AF786000BF91
:10309C000C37BD4680BC704770B500260C4D0D4CEE
:1030AC00641BA410A64209D100F022F800260A4D98
:1030BC000A4C641BA410A64205D170BD55F8043B04
:1030CC0098470136EEE755F8043B98470136F2E78E
:1030DC003831000838310008383100083C3100081C
:1030EC0003460244934200D1704703F8011BF9E7F1
:1030FC00F8B500BFF8BC08BC9E467047F8B500BFD9
:08310C00F8BC08BC9E467047A8
:103114000000000000000000010203040607080983
:1031240002030405060708090A0B0C0D0E0F101004
:043134000102000094
:043138003101000859
:04313C000D01000879
:103140000B00000003000000080000000B0000005E
:1031500003000000080000000B0000000300000056
:10316000080000000B000000080000000002020040
:10317000010108030024F400100000000100000019
:0400000508001A9D38
:00000001FF
